{"abi":[{"inputs":[{"internalType":"uint256","name":"updateInterval","type":"uint256"}],"stateMutability":"nonpayable","type":"constructor","name":"constructor"},{"inputs":[{"internalType":"bytes","name":"checkData","type":"bytes"}],"name":"checkUpkeep","outputs":[{"internalType":"bool","name":"upkeepNeeded","type":"bool"},{"internalType":"bytes","name":"performData","type":"bytes"}],"stateMutability":"nonpayable","type":"function"},{"inputs":[],"name":"counter","outputs":[{"internalType":"uint256","name":"","type":"uint256"}],"stateMutability":"view","type":"function"},{"inputs":[],"name":"interval","outputs":[{"internalType":"uint256","name":"","type":"uint256"}],"stateMutability":"view","type":"function"},{"inputs":[],"name":"lastTimeStamp","outputs":[{"internalType":"uint256","name":"","type":"uint256"}],"stateMutability":"view","type":"function"},{"inputs":[{"internalType":"bytes","name":"performData","type":"bytes"}],"name":"performUpkeep","outputs":[],"stateMutability":"nonpayable","type":"function"}],"bytecode":"60a060405234801561001057600080fd5b5060405161032f38038061032f8339818101604052602081101561003357600080fd5b505160805242600155600080556080516102d061005f6000398061020e528061027852506102d06000f3fe608060405234801561001057600080fd5b50600436106100575760003560e01c80633f3b3b271461005c5780634585e33b1461007657806361bc221a146100e85780636e04ff0d146100f0578063947a36fb146101e1575b600080fd5b6100646101e9565b60408051918252519081900360200190f35b6100e66004803603602081101561008c57600080fd5b8101906020810181356401000000008111156100a757600080fd5b8201836020820111156100b957600080fd5b803590602001918460018302840111640100000000831117156100db57600080fd5b5090925090506101ef565b005b610064610202565b6101606004803603602081101561010657600080fd5b81019060208101813564010000000081111561012157600080fd5b82018360208201111561013357600080fd5b8035906020019184600183028401116401000000008311171561015557600080fd5b509092509050610208565b60405180831515815260200180602001828103825283818151815260200191508051906020019080838360005b838110156101a557818101518382015260200161018d565b50505050905090810190601f1680156101d25780820380516001836020036101000a031916815260200191505b50935050505060405180910390f35b610064610276565b60015481565b5050426001908155600080549091019055565b60005481565b600060607f0000000000000000000000000000000000000000000000000000000000000000600154420311915083838080601f016020809104026020016040519081016040528093929190818152602001838380828437600092019190915250949792965091945050505050565b7f00000000000000000000000000000000000000000000000000000000000000008156fea264697066735822122092615eec9287029c2219a8fa3cdada8ab943e2b2f73ca40579c5fc7ff80a1b5b64736f6c634300060c0033","bytecodeSha1":"3171e267c4e7cd321c13cdc1f070653fd0649b74","compiler":{"evm_version":"istanbul","optimizer":{"enabled":true,"runs":200},"version":"0.6.12+commit.27d51765"},"contractName":"Counter","language":"Solidity","natspec":{"kind":"dev","methods":{"counter()":{"notice":"Public counter variable"},"interval()":{"notice":"Use an interval in seconds and a timestamp to slow execution of Upkeep"}},"version":1},"opcodes":"PUSH1 0x80 PUSH1 0x40 MSTORE CALLVALUE DUP1 ISZERO PUSH2 0x10 JUMPI PUSH1 0x0 DUP1 REVERT JUMPDEST POP PUSH1 0x4 CALLDATASIZE LT PUSH2 0x57 JUMPI PUSH1 0x0 CALLDATALOAD PUSH1 0xE0 SHR DUP1 PUSH4 0x3F3B3B27 EQ PUSH2 0x5C JUMPI DUP1 PUSH4 0x4585E33B EQ PUSH2 0x76 JUMPI DUP1 PUSH4 0x61BC221A EQ PUSH2 0xE8 JUMPI DUP1 PUSH4 0x6E04FF0D EQ PUSH2 0xF0 JUMPI DUP1 PUSH4 0x947A36FB EQ PUSH2 0x1E1 JUMPI JUMPDEST PUSH1 0x0 DUP1 REVERT JUMPDEST PUSH2 0x64 PUSH2 0x1E9 JUMP JUMPDEST PUSH1 0x40 DUP1 MLOAD SWAP2 DUP3 MSTORE MLOAD SWAP1 DUP2 SWAP1 SUB PUSH1 0x20 ADD SWAP1 RETURN JUMPDEST PUSH2 0xE6 PUSH1 0x4 DUP1 CALLDATASIZE SUB PUSH1 0x20 DUP2 LT ISZERO PUSH2 0x8C JUMPI PUSH1 0x0 DUP1 REVERT JUMPDEST DUP2 ADD SWAP1 PUSH1 0x20 DUP2 ADD DUP2 CALLDATALOAD PUSH5 0x100000000 DUP2 GT ISZERO PUSH2 0xA7 JUMPI PUSH1 0x0 DUP1 REVERT JUMPDEST DUP3 ADD DUP4 PUSH1 0x20 DUP3 ADD GT ISZERO PUSH2 0xB9 JUMPI PUSH1 0x0 DUP1 REVERT JUMPDEST DUP1 CALLDATALOAD SWAP1 PUSH1 0x20 ADD SWAP2 DUP5 PUSH1 0x1 DUP4 MUL DUP5 ADD GT PUSH5 0x100000000 DUP4 GT OR ISZERO PUSH2 0xDB JUMPI PUSH1 0x0 DUP1 REVERT JUMPDEST POP SWAP1 SWAP3 POP SWAP1 POP PUSH2 0x1EF JUMP JUMPDEST STOP JUMPDEST PUSH2 0x64 PUSH2 0x202 JUMP JUMPDEST PUSH2 0x160 PUSH1 0x4 DUP1 CALLDATASIZE SUB PUSH1 0x20 DUP2 LT ISZERO PUSH2 0x106 JUMPI PUSH1 0x0 DUP1 REVERT JUMPDEST DUP2 ADD SWAP1 PUSH1 0x20 DUP2 ADD DUP2 CALLDATALOAD PUSH5 0x100000000 DUP2 GT ISZERO PUSH2 0x121 JUMPI PUSH1 0x0 DUP1 REVERT JUMPDEST DUP3 ADD DUP4 PUSH1 0x20 DUP3 ADD GT ISZERO PUSH2 0x133 JUMPI PUSH1 0x0 DUP1 REVERT JUMPDEST DUP1 CALLDATALOAD SWAP1 PUSH1 0x20 ADD SWAP2 DUP5 PUSH1 0x1 DUP4 MUL DUP5 ADD GT PUSH5 0x100000000 DUP4 GT OR ISZERO PUSH2 0x155 JUMPI PUSH1 0x0 DUP1 REVERT JUMPDEST POP SWAP1 SWAP3 POP SWAP1 POP PUSH2 0x208 JUMP JUMPDEST PUSH1 0x40 MLOAD DUP1 DUP4 ISZERO ISZERO DUP2 MSTORE PUSH1 0x20 ADD DUP1 PUSH1 0x20 ADD DUP3 DUP2 SUB DUP3 MSTORE DUP4 DUP2 DUP2 MLOAD DUP2 MSTORE PUSH1 0x20 ADD SWAP2 POP DUP1 MLOAD SWAP1 PUSH1 0x20 ADD SWAP1 DUP1 DUP4 DUP4 PUSH1 0x0 JUMPDEST DUP4 DUP2 LT ISZERO PUSH2 0x1A5 JUMPI DUP2 DUP2 ADD MLOAD DUP4 DUP3 ADD MSTORE PUSH1 0x20 ADD PUSH2 0x18D JUMP JUMPDEST POP POP POP POP SWAP1 POP SWAP1 DUP2 ADD SWAP1 PUSH1 0x1F AND DUP1 ISZERO PUSH2 0x1D2 JUMPI DUP1 DUP3 SUB DUP1 MLOAD PUSH1 0x1 DUP4 PUSH1 0x20 SUB PUSH2 0x100 EXP SUB NOT AND DUP2 MSTORE PUSH1 0x20 ADD SWAP2 POP JUMPDEST POP SWAP4 POP POP POP POP PUSH1 0x40 MLOAD DUP1 SWAP2 SUB SWAP1 RETURN JUMPDEST PUSH2 0x64 PUSH2 0x276 JUMP JUMPDEST PUSH1 0x1 SLOAD DUP2 JUMP JUMPDEST POP POP TIMESTAMP PUSH1 0x1 SWAP1 DUP2 SSTORE PUSH1 0x0 DUP1 SLOAD SWAP1 SWAP2 ADD SWAP1 SSTORE JUMP JUMPDEST PUSH1 0x0 SLOAD DUP2 JUMP JUMPDEST PUSH1 0x0 PUSH1 0x60 PUSH32 0x0 PUSH1 0x1 SLOAD TIMESTAMP SUB GT SWAP2 POP DUP4 DUP4 DUP1 DUP1 PUSH1 0x1F ADD PUSH1 0x20 DUP1 SWAP2 DIV MUL PUSH1 0x20 ADD PUSH1 0x40 MLOAD SWAP1 DUP2 ADD PUSH1 0x40 MSTORE DUP1 SWAP4 SWAP3 SWAP2 SWAP1 DUP2 DUP2 MSTORE PUSH1 0x20 ADD DUP4 DUP4 DUP1 DUP3 DUP5 CALLDATACOPY PUSH1 0x0 SWAP3 ADD SWAP2 SWAP1 SWAP2 MSTORE POP SWAP5 SWAP8 SWAP3 SWAP7 POP SWAP2 SWAP5 POP POP POP POP POP JUMP JUMPDEST PUSH32 0x0 DUP2 JUMP INVALID LOG2 PUSH5 0x6970667358 0x22 SLT KECCAK256 SWAP3 PUSH2 0x5EEC SWAP3 DUP8 MUL SWAP13 0x22 NOT 0xA8 STATICCALL EXTCODECOPY 0xDA 0xDA DUP11 0xB9 NUMBER 0xE2 0xB2 0xF7 EXTCODECOPY LOG4 SDIV PUSH26 0xC5FC7FF80A1B5B64736F6C634300060C00330000000000000000 ","sha1":"e8bc010c6dc5b231436c4383b5034a7ebf86698d","source":"pragma solidity ^0.6.7;\n\nimport \"@chainlink/contracts/src/v0.6/interfaces/AggregatorV3Interface.sol\";\n\ninterface KeeperCompatibleInterface {\n    function checkUpkeep(bytes calldata checkData) external returns (bool upkeepNeeded, bytes memory performData);\n    function performUpkeep(bytes calldata performData) external;\n}\n\ncontract Counter is KeeperCompatibleInterface {\n    /**\n    * Public counter variable\n    */\n    uint public counter;\n\n\n    /**\n    * Use an interval in seconds and a timestamp to slow execution of Upkeep\n    */\n    uint public immutable interval;\n    uint public lastTimeStamp;\n\n    \n    constructor(uint updateInterval) public {\n      interval = updateInterval;\n      lastTimeStamp = block.timestamp;\n\n      counter = 0;\n    }\n\n\n    function checkUpkeep(bytes calldata checkData) external override returns (bool upkeepNeeded, bytes memory performData) {\n        upkeepNeeded = (block.timestamp - lastTimeStamp) > interval;\n\n        // We don't use the checkData in this example\n        // checkData was defined when the Upkeep was registered\n        performData = checkData;\n    }\n\n    function performUpkeep(bytes calldata performData) external override {\n        lastTimeStamp = block.timestamp;\n        counter = counter + 1;\n\n        // We don't use the performData in this example\n        // performData is generated by the Keeper's call to your `checkUpkeep` function\n        performData;\n        \n    }\n    \n}\n    \n","sourcePath":"contracts/Counter.sol","type":"contract","deployment":{"address":"0x32647D8eCB2268D143DD59301256B3caf74310B0","chainid":"42","blockHeight":26404962}}